:020000040800F2
:10000000C8090020B50D0008A5060008A7060008CD
:10001000AB060008AF060008B306000800000000A9
:10002000000000000000000000000000B70600080B
:10003000B906000800000000BB060008BD06000865
:10004000CF0D0008CF0D0008CF0D0008CF0D000820
:10005000CF0D0008CF0D0008CF0D0008CF0D000810
:10006000CF0D0008CF0D0008CF0D0008CF0D000800
:10007000CF0D0008CF0D0008CF0D0008CF0D0008F0
:10008000CF0D0008CF0D0008CF0D0008CF0D0008E0
:10009000CF0D0008CF0D0008CF0D0008CF0D0008D0
:1000A000CF0D0008CF0D0008CF0D0008CF0D0008C0
:1000B000CF0D0008CF0D0008CF0D0008CF0D0008B0
:1000C000CF0D0008CF0D0008CF0D0008CF0D0008A0
:1000D000CF0D00088B0A0008CF0D0008EF0B0008B9
:1000E000CF0D0008CF0D0008CF0D0008CF0D000880
:1000F000CF0D0008CF0D0008CF0D0008CF0D000870
:10010000CF0D0008CF0D0008CF0D0008CF0D00085F
:10011000CF0D0008CF0D0008CF0D0008CF0D00084F
:10012000CF0D0008CF0D0008CF0D0008CF0D00083F
:1001300000F002F800F03AF80AA090E8000C8244BF
:100140008344AAF10107DA4501D100F02FF8AFF29C
:10015000090EBAE80F0013F0010F18BFFB1A43F0A5
:1001600001031847501A0000701A0000103A24BF0B
:1001700078C878C1FAD8520724BF30C830C144BF0C
:1001800004680C607047000000230024002500264E
:10019000103A28BF78C1FBD8520728BF30C148BFEA
:1001A0000B6070471FB51FBD10B510BD01F0BCFC42
:1001B0001146FFF7F7FF00F095F901F0EEFC03B4EC
:1001C000FFF7F2FF03BC00F0FDFB0000F0B585B0C7
:1001D00004460F4600200290039004900090019086
:1001E00000250026072F05DAE1A001F0F7FB00202B
:1001F00005B0F0BD2078632875D160786D28FBD1FB
:10020000A0786428F8D1E0782328F5D100260425C9
:100210000FE0092E04DBD9A001F0E0FB0020E7E7A6
:100220002846691CCDB2225C3046711CCEB202A9B0
:100230000A54605D232801D0BD42EADB002002A9F8
:1002400088550026681CC5B20FE0052E04DBCFA040
:1002500001F0C4FB0020CBE72846691CCDB2225C2C
:100260003046711CCEB20DF80020605D232801D00D
:10027000BD42EADB00200DF80600C8A102A801F08B
:10028000E1FBF0B9C7A1684601F0DCFB38B90020FA
:10029000C5490860C5A001F0A1FB0120A8E7C6A1DF
:1002A000684601F0CFFB38B90120BF490860C3A000
:1002B00001F094FB01209BE7C3A001F08FFB00201D
:1002C00096E7C4A102A801F0BDFBF8B9B5A1684644
:1002D00001F0B8FB40B90120C0490860C0A001F09E
:1002E0007DFB012084E72DE0B3A1684601F0AAFB65
:1002F00038B90020B9490860BCA001F06FFB0120AB
:1003000076E7B1A001F06AFB002071E7BAA102A86C
:1003100001F098FB88B9BAA1684601F093FB38B99F
:100320000020B8490870B8A001F058FB01205FE731
:10033000A5A001F053FB00205AE7A3A001F04EFB5B
:10034000002055E7A0A001F049FB002050E7F0B5E0
:100350008DB004460F4600250026182107A801F09D
:1003600049FB182101A801F045FB092F02DA0320FF
:100370000DB0F0BD20786C284DD160786F284AD13F
:10038000A078672847D1E078692844D120796E2881
:1003900041D1607923283ED1002606250CE0142E99
:1003A00001DB0220E4E72846691CCDB2225C30461E
:1003B000711CCEB207A90A54605D232801D0BD424A
:1003C000EDDB002007A988550026681CC5B20CE0AB
:1003D000142E01DB0220CBE72846691CCDB2225C3B
:1003E0003046711CCEB201A90A54605D232801D0A9
:1003F000BD42EDDB002001A98855864907A801F020
:1004000021FB30B9844901A801F01CFB08B9002088
:10041000AEE70120ACE70120AAE72DE9F041044650
:10042000002500270026012C03D100F055FB0746CC
:1004300002E000F003FC0746002512E0012C04D185
:1004400000F051FB7549485503E000F0FEFB73498D
:100450004855701CC6B2FA2E01DB002603E0681C6A
:10046000C5B2BD42EADB00BF002E39D0012C04D159
:1004700031466A4800F000FC32E03146674800F03F
:1004800049FB3DA001F0AAFA5E480078002823D17C
:1004900031466248FFF75BFF30B9012059490870C7
:1004A0005FA001F09BFA1BE031465C48FFF74FFF6D
:1004B000022803D15DA001F091FA11E031465748BE
:1004C000FFF745FF032803D15DA001F087FA07E09D
:1004D00067A001F083FA03E031465048FFF776FE4B
:1004E000BDE8F08108B50020009000F0F9FB4FF462
:1004F000A06000F07FFC4FF4E13000F071FA4FF49F
:10050000E13000F01FFB00F0CBF900F0EFF900F054
:10051000CBFB012031490C39086028E00120FFF7AE
:100520007CFF0320FFF779FF002000F0F9F900902D
:100530009DF8000070B19DF80000012805D0022848
:1005400007D1312000F0D8FA03E0332000F086FB19
:1005500000BF00BF21480C38006808B9012000E046
:1005600000201E490C390860642000F0F6FBD5E736
:10057000C3FCC1EEB9FDB6CC0D0A00006465766916
:100580006365B3ACB3A40D0A00000000737461741A
:100590007573B3ACB3A40D0A000000004C454431A0
:1005A000000000004F4E0000940123424C454431AE
:1005B000B4F2BFAA0D0A00004F4646004C45443134
:1005C000B9D8B1D50D0A0000C3FCC1EEB4EDCEF32D
:1005D0000D0A00004245455000000000A081214264
:1005E00042454550B4F2BFAA0D0A000042454550AD
:1005F000B9D8B1D50D0A00006C6F67696E000000B4
:100600006F75740000000020D5CBBAC5B5C7B3F62E
:100610000D0A0000010000201600002068000020E4
:10062000B5C7C2BCB3C9B9A60D0A0000D5CBBAC5BF
:10063000BBF2C3DCC2EBB3ACB3A40D0A00000000F4
:10064000C3FCC1EEB9FDB6CCA3ACC7EBB7A2CBCD12
:10065000C3FCC1EE226C6F67696E23D5CBBAC5238C
:10066000C3DCC2EB2322B5C7C2BC0D0A00000000E8
:10067000D5CBBAC5BBF2C3DCC2EBB4EDCEF3A3ACB1
:10068000C7EBB7A2CBCDC3FCC1EE226C6F67696E1E
:1006900023D5CBBAC523C3DCC2EB2322B5C7C2BC6A
:1006A0000D0A0000704700BFFEE700BFFEE700BF75
:1006B000FEE700BFFEE770477047704770470000D5
:1006C0000CB50020019000906C48006840F4803028
:1006D0006A49086000BF6948006800F40030009073
:1006E0000198401C0190009818B90198B0F5A06FCE
:1006F000F1D16248006800F4003010B10120009090
:1007000001E0002000900098012843D15C48006877
:1007100040F010005A4908600846006820F00300C5
:1007200008600846006840F00200086053484068CE
:10073000524948600846406848600846406840F4AE
:10074000806048600846406820F47C104860084695
:10075000406840F4E81048600846006840F0807047
:10076000086000BF4548006800F000700028F9D01C
:100770004248406820F0030040494860084640680D
:1007800040F00200486000BF3C48406800F00C00A8
:100790000828F9D10CBD10B5FFF792FF10BD10B5B8
:1007A0003648006840F00100344908600846406857
:1007B00034490840314948600846006832490840D9
:1007C0002E4908600846006820F48020086008462A
:1007D000406820F4FE0048604FF41F008860FFF777
:1007E000DAFF4FF000602949086010BD10B5002104
:1007F00000200022214B5B6803F00C0121B1042989
:1008000006D0082928D107E0214B224C236027E09D
:100810001F4B204C236023E0184B5B6803F47010DF
:10082000164B5B6803F48032022303EB904022B93D
:10083000194B4343174C23600DE0104B5B6803F4E6
:10084000003323B1144B4343124C236003E0104B9D
:100850004343104C236003E00D4B0E4C236000BF5C
:1008600000BF064B5B68C3F303130C4CE15C094B00
:100870001B68CB40074C236010BD000000100240F5
:10088000002002400000FFF8FFFFF6FE08ED00E048
:1008900000127A002C00002000093D0030000020EA
:1008A00008B50121482000F02FFE2020ADF80000FF
:1008B00010208DF8030003208DF8020069460948D6
:1008C00000F066FB2021074800F00FFC2020ADF867
:1008D00000006946044800F05BFB2021024800F05C
:1008E00004FC08BD000C01400018014008B50121BE
:1008F000442000F009FE1820ADF8000048208DF8D3
:10090000030069462C4800F043FB0120ADF80000CD
:1009100028208DF803006946284800F039FB08BDFF
:1009200010B5044614B10120254908702448007808
:1009300058B31021204800F0BEFB50B108211E48DA
:1009400000F0B9FB28B101211C4800F0B4FB0128DC
:100950001BD10A2000F001FA00201949087010216B
:10096000154800F0A8FB08B9012010BD0821124865
:1009700000F0A1FB08B90220F7E701210F4800F0C1
:100980009AFB012815D10320EFE710210A4800F057
:1009900092FB01280DD10821074800F08CFB0128AB
:1009A00007D10121054800F086FB10B90120044958
:1009B00008700020D9E7000000180140000801403D
:1009C0004000002000BF704700BF594A128802F063
:1009D0004002002AF9D0C2B2554B1B1D1A80704745
:1009E00010B586B004460121042000F08DFD0121E0
:1009F000880300F089FD4FF40070ADF81400182052
:100A00008DF8170003208DF8160005A9494800F05D
:100A1000BFFA4FF48060ADF8140004208DF8170081
:100A200005A9444800F0B4FA25208DF80000012003
:100A30008DF8010000208DF8020001208DF80300E0
:100A4000684600F0DCF901940020ADF80800ADF82C
:100A50000A00ADF80C00ADF810000C20ADF80E0047
:100A600001A9334800F0F7FD012240F2255130483A
:100A700000F089FE01212E4800F079FE00202E4969
:100A800008702E49087006B010BD10B540F225510F
:100A9000274800F05DFFF0B1284800782649097822
:100AA000884204D100202549087023490870204855
:100AB000001D00882249214A127888541F48007876
:100AC000401C1E49087008460078FA2803DB002005
:100AD00008701949087010BD18480078164909783F
:100AE000401AC0B27047144801780078401C124A7E
:100AF00010701348405C704710B5044621460C48FE
:100B000000F0A2FE00BF0A48008800F08000002824
:100B1000F9D010BD70B505460E46002404E0285DEE
:100B2000FFF7EAFF601CC4B2B442F8DB70BD0000FE
:100B3000003801400008014044000020450000202A
:100B40006701002010B586B004460121082000F09E
:100B5000DBFC0121880400F0E4FC4FF48060ADF878
:100B6000140018208DF8170003208DF8160005A931
:100B7000484800F00DFA4FF40060ADF8140004206E
:100B80008DF8170005A9434800F002FA27208DF8D8
:100B9000000001208DF8010000208DF802000120E6
:100BA0008DF80300684600F02AF901940020ADF8A2
:100BB0000800ADF80A00ADF80C00ADF810000C20EC
:100BC000ADF80E0001A9344800F045FD012240F2C5
:100BD0002551314800F0D7FD01212F4800F0C7FD15
:100BE00000202E4908702E49087006B010BD10B5BF
:100BF00040F22551284800F0ABFEF0B128480078BB
:100C000026490978884204D10020254908702349E3
:100C100008702148001D00882249214A1278885412
:100C20001F480078401C1E49087008460078FA28C2
:100C300003DB002008701949087010BD18480078BF
:100C400016490978401AC0B27047144801780078F4
:100C5000401C124A10701348405C704710B504469F
:100C600021460D4800F0F0FD00BF0B48008800F061
:100C700080000028F9D010BD70B505460E4600244E
:100C800004E0285DFFF7EAFF601CC4B2B442F8DB61
:100C900070BD0000000C0140004800404C000020E6
:100CA0004D0000206602002008B50121082000F058
:100CB0002BFC4FF48070ADF8000010208DF803007D
:100CC00003208DF802006946044800F061F94FF4F2
:100CD0008071024800F00BFA08BD0000000C0140D2
:100CE00010B56FF0040000F0D4F82E4800682E49CB
:100CF000B0FBF1F02D4908700846007800EB400188
:100D0000C1EBC0104FF6FF7101EAC000284908800E
:100D100010BD0146254A12784A434FF0E0235A613C
:100D200000229A611A46126942F001021A6100BF5C
:100D30004FF0E022106900F001021AB100F4803295
:100D4000002AF5D04FF0E022126922F001024FF0A4
:100D5000E0231A6100229A6170470146144A128802
:100D60004A434FF0E0235A6100229A611A46126901
:100D700042F001021A6100BF4FF0E022106900F05A
:100D800001021AB100F48032002AF5D04FF0E022BF
:100D9000126922F001024FF0E0231A6100229A61E9
:100DA000704700002C00002000127A004E00002046
:100DB000500000200948804709480047FEE7FEE749
:100DC000FEE7FEE7FEE7FEE7FEE7FEE7FEE7FEE7FB
:100DD00004480549054A064B704700009F07000874
:100DE00031010008C8030020C8090020C805002000
:100DF000C805002031490143314A1160704770B580
:100E0000002100230F22C47804B32D4C246804F47D
:100E1000E064C4F5E064210AC1F10403CA404478E7
:100E200004FA03F18478144021430901254C067823
:100E3000A155047804F01F050124AC4005786D111C
:100E4000AD0005F1E025C5F8004109E0047804F0A3
:100E50001F050124AC401C4D0678761145F826404C
:100E600070BD1A4A0A400243154B1B1F1A60704797
:100E700039B1134A121D12680243114B1B1D1A602F
:100E800006E00F4A121D126882430D4B1B1D1A60AB
:100E90007047042808D14FF0E021096941F00401AE
:100EA0004FF0E022116107E04FF0E021096921F0E5
:100EB00004014FF0E0221161704700000000FA05C4
:100EC0000CED00E000E400E080E100E080FFFF1FA7
:100ED00010B50446CC48844208D10121042000F01A
:100EE0002DFB0021042000F029FB46E0C748844286
:100EF00008D10121082000F021FB0021082000F08A
:100F00001DFB3AE0C248844208D10121102000F0C4
:100F100015FB0021102000F011FB2EE0BD4884429B
:100F200008D10121202000F009FB0021202000F041
:100F300005FB22E0B848844208D10121402000F09E
:100F4000FDFA0021402000F0F9FA16E0B34884428F
:100F500008D10121802000F0F1FA0021802000F06A
:100F6000EDFA0AE0AE48844207D10121801500F075
:100F7000E5FA0021A01500F0E1FA10BD10B501213D
:100F8000084600F0DBFA0021012000F0D7FA10BD7E
:100F90002DE9F04102460025002600200023002410
:100FA000002791F803C00CF00F0591F803C00CF076
:100FB000100CBCF1000F03D091F802C04CEA0505FB
:100FC00091F800C0BCF1000F31D0146800202BE074
:100FD0004FF0010C0CFA00F3B1F800C00CEA030664
:100FE0009E4220D183004FF00F0C0CFA03F7BC4354
:100FF00005FA03FC4CEA040491F803C0BCF1280F85
:1010000006D14FF0010C0CFA00FCC2F814C00AE043
:1010100091F803C0BCF1480F05D14FF0010C0CFA58
:1010200000FCC2F810C0401C0828D1D31460B1F8ED
:1010300000C0BCF1FF0F34DD546800202EE000F149
:10104000080C4FF0010808FA0CF3B1F800C00CEAE4
:1010500003069E4221D183004FF00F0C0CFA03F7D8
:10106000BC4305FA03FC4CEA040491F803C0BCF14C
:10107000280F05D100F1080C08FA0CF8C2F814800A
:1010800091F803C0BCF1480F07D100F1080C4FF0F4
:10109000010808FA0CF8C2F81080401C0828CED3CA
:1010A0005460BDE8F0814FF6FF710180022181702C
:1010B0000421C17070470246002093680B400BB1B9
:1010C000012000E0002070470146886880B2704728
:1010D00002460020D3680B400BB1012000E0002045
:1010E00070470146C86880B270470161704741612E
:1010F00070470AB1016100E041617047C16070470B
:101100004FF480320A43826181618261826982691F
:10111000704702460020434B18684FF68073184012
:1011200040EA021008433F4B186070473E49C861CF
:101130007047F0B50A46002300240021002500F086
:101140000046B6F1004F02D1364EF16901E0354E4E
:101150007168C0F3034583B200F44016B6F5401F32
:1011600008D121F070612F4E766826F070662D4F01
:101170007E6012E000F48016B6F5801F06D10326CB
:1011800006FA05F4A14341F0706106E0460D360110
:1011900003FA06F6B14341F0706122B1460D360103
:1011A00003FA06F6314300F00046B6F1004F02D1D3
:1011B0001C4EF16101E01B4E7160F0BD30B50022A4
:1011C0008B071C0F0F2303FA04F2164B08338C1005
:1011D00053F824309343134C08348D1044F82530D1
:1011E00023468C1053F824308C07240F00FA04F4A3
:1011F00023430C4C08348D1044F8253030BD0A4987
:10120000DC3108607047000000080140000C01401C
:10121000001001400014014000180140001C014072
:10122000002001400000014000002042DF4800682B
:1012300040F00100DD49086008464068DC4908408C
:10124000DA49486008460068DA490840D74908602A
:101250000846006820F4802008600846406820F4B2
:10126000FE0048604FF41F0088607047CF4909684E
:1012700021F48031CD4A11601146096821F48021A2
:101280001160B0F5803F03D0B0F5802F0ED106E09D
:10129000C649096841F48031C44A116007E0C34976
:1012A000096841F4A021C14A116000E000BF00BFFD
:1012B000704710B501460022002300204A11012A80
:1012C00002D1BA4C236806E0022A02D1B74C236A45
:1012D00001E0B64C636A01F01F02012494401C40F7
:1012E0000CB1012000E0002010BD38B500200090B6
:1012F0000024002500BF3120FFF7DBFF05460098E2
:10130000401C00900098B0F5A06F01D0002DF2D0E5
:101310003120FFF7CEFF08B1012400E00024204671
:1013200038BD01460020A14A106820F0F80040EACC
:10133000C10010607047A049086070470246002055
:101340009A4B586820F47C1042EA01031843974BEB
:101350005860704798490866704701460020934AD4
:10136000506820F003000843506070478F48406881
:1013700000F00C007047014600208C4A506820F0B5
:10138000F00008435060704701460020874A5068CB
:1013900020F4E06008435060704701460020834A13
:1013A000506820F4605040EAC1005060704729B195
:1013B0007E4A527A02437D4B5A7204E07B4A527A4B
:1013C00082437A4B5A7270477B49D8310860704724
:1013D00001460020754A506820F4404008435060A0
:1013E00070470021714A20321170704A82F8201033
:1013F000012802D004280AD104E001216B4A2032DE
:10140000117005E00521694A2032117000E000BF2B
:1014100000BF70476949086070476449096A014321
:10142000624A11627047654944390860704730B5B7
:1014300000210022002400235C4D6D6805F00C01A2
:1014400021B1042905D0082923D105E05C4D0560B0
:1014500022E05B4D05601FE0544D6D6805F470128D
:10146000524D6D6805F48034022505EB92421CB99B
:10147000544D554305600BE04C4D6D6805F4003547
:101480001DB1504D5543056002E04D4D554305607B
:1014900002E04B4D056000BF00BF444D6D6805F094
:1014A000F0010909484D6B5C0568DD4045603F4D22
:1014B0006D6805F4E061090A434D6B5C4568DD40E9
:1014C00085603A4D6D6805F46051C90A3E4D6B5C0C
:1014D0004568DD40C560354D6D6805F44041890BB8
:1014E0003A4D6B5CC568B5FBF3F5056130BD29B1BC
:1014F0002E4A526902432D4B5A6104E02B4A52692D
:1015000082432A4B5A61704729B1284A92690243A3
:10151000264B9A6104E0254A92698243234B9A61E3
:10152000704729B1214AD2690243204BDA6104E0B5
:101530001E4AD26982431D4BDA61704729B11B4AAA
:10154000D2680243194BDA6004E0184AD268824339
:10155000164BDA60704729B1144A12690243134BE3
:101560001A6104E0114A12698243104B1A617047F4
:1015700012494039086070470F49C86470470B49E9
:10158000C87170470948406A40F080700749486256
:10159000704701460020054A92680A400AB10120BE
:1015A00000E0002070470149887270470010024037
:1015B0000000FFF8FFFFF6FE0000424280044242B6
:1015C00000127A0000093D00520000206200002055
:1015D00010B50446FB48844209D101218803FFF776
:1015E000ADFF00214FF48040FFF7A8FF32E0F6483E
:1015F000844209D101214804FFF7ADFF00214FF4D7
:101600000030FFF7A8FF25E0F048844209D101210E
:101610008804FFF7A0FF00214FF48020FFF79BFF15
:1016200018E0EB48844209D10121C804FFF793FF79
:1016300000214FF40020FFF78EFF0BE0E5488442C5
:1016400008D101210805FFF786FF00214FF4801023
:10165000FFF781FF10BD2DE9F04786B005460E4625
:101660000024A24600BFA1460027B08900B100BFF8
:101670002F462C8A4CF6FF700440F08804432C82DD
:10168000AC894EF6F3100440B08831890843718963
:1016900008430443AC81AC8A4FF6FF400440B08954
:1016A0000443AC8201A8FFF7C2FEC648874202D1BC
:1016B000DDF810A001E0DDF80CA0A88900F40040DE
:1016C00040B10AEBCA0000EB0A1031684900B0FBD8
:1016D000F1F807E00AEBCA0000EB0A103168890054
:1016E000B0FBF1F86420B8FBF0F00401200964219C
:1016F00001FB1089A88900F4004040B1322000EBC2
:10170000C900B0FBF1F000F00700044308E032200C
:1017100000EB09106421B0FBF1F000F00F0004436E
:101720002C8106B0BDE8F0874FF41651016000210E
:101730008180C18001810C2141810021818170471C
:1017400010B502460020108A4FF2FF0318400B88A4
:101750004C8823438C882343CC882343184310822E
:1017600010BD0021018041808180C180704721B17E
:10177000828942F40052828104E082894DF6FF732F
:101780001A4082817047F0B50346002400260025E8
:10179000002040F66A17B94200D100BF1846C1F3D5
:1017A000421401F01F06012707FA06F5012C01D1AA
:1017B0000C3004E0022C01D1103000E014301AB1DA
:1017C00007682F43076002E00768AF430760F0BD7A
:1017D0001AB1838A0B43838202E0838A8B4383821C
:1017E0007047028A4FF6F0731A400282028A0A4357
:1017F0000282704782894FF2FF731A408281828988
:101800000A438281704721B1828942F002028281BB
:1018100004E082894FF6FD731A4082817047028A84
:101820004FF6DF731A400282028A0A43028270472F
:1018300021B1028A42F48042028204E0028A4BF61D
:10184000FF731A4002827047C1F30802828070471A
:1018500001468888C0F308007047818941F0010182
:1018600081817047028BD2B20283028B42EA01224D
:1018700002837047028B02F47F420283028B0A4389
:101880000283704721B1828A42F02002828204E002
:10189000828A4FF6DF731A408282704721B1828AB2
:1018A00042F01002828204E0828A4FF6EF731A40FF
:1018B0008282704721B1828A42F00802828204E06B
:1018C000828A4FF6F7731A408282704721B182896B
:1018D00042F40042828103E08289C2F30E028281D7
:1018E000704721B1828A42F40062828204E0828AD7
:1018F0004FF2FF731A4082827047828A4FF6FB7361
:101900001A408282828A0A438282704721B1828A87
:1019100042F00202828204E0828A4FF6FD731A408E
:101920008282704702460020B1F5007F00D100BFDF
:1019300013880B400BB1012000E00020704701F438
:101940000072B2F5007F00D100BFCA430280704729
:1019500070B50246002400230025002040F66A16D8
:10196000B14200D100BFC1F3421501F01F030126AF
:1019700006FA03F3012D02D19689334006E0022DC9
:1019800002D1168A334001E0968A33400C120126B8
:1019900006FA04F41688344013B10CB1012000E0BB
:1019A000002070BD10B50022002340F66A14A14249
:1019B00000D100BF0A1201249440A3B2DC4304808A
:1019C00010BD0000003801400044004000480040C5
:1019D000004C004000500040704700000FB4044924
:1019E00010B503AA029800F071F810BC5DF814FB62
:1019F000480000204FF0000200B51346944696467A
:101A0000203922BFA0E80C50A0E80C50B1F1200111
:101A1000BFF4F7AF090728BFA0E80C5048BF0CC0BF
:101A20005DF804EB890028BF40F8042B08BF70471D
:101A300048BF20F8022B11F0804F18BF00F8012B8F
:101A4000704700004FF0013C50F8042B51F8043B64
:101A50009A4221D1A2EB0C03934313EACC1317D182
:101A600050F8042B51F8043B9A4215D1A2EB0C0319
:101A7000934313EACC130BD150F8042B51F8043BD9
:101A80009A4209D1A2EB0C03934313EACC13DBD0A7
:101A90004FF00000704700BFD01A01BAB1FA81F1CF
:101AA00001F0180122FA01F0CB40C1F12001DBB2B4
:101AB000C0B2C01A2CFA01F3D11A914311EAC31132
:101AC000E6D170477047704770477047074B70B555
:101AD0000D467B4400F011F80446284600F020F83B
:101AE00010B14FF0FF3070BD204670BDF3EEFFFF28
:101AF00001694A1C02610878704700B58FB0CDE9D2
:101B000001310021059105497944CDE903101146C1
:101B1000684600F02EF80FB000BD0000E5FFFFFFA3
:101B2000007B00F080007047754600F03FF8AE463D
:101B300005006946534620F00700854618B020B5D9
:101B4000FFF746F9BDE820404FF000064FF00007D0
:101B50004FF000084FF0000B21F00701AC46ACE855
:101B6000C009ACE8C009ACE8C009ACE8C0098D46C2
:101B700070472DE9F04106460024D6E90170F5686A
:101B80008046304603E04146B847641C3046A847CB
:101B90000028F8D12046BDE8F08110B50446AFF327
:101BA00000802046BDE81040FEF709BB00487047A2
:101BB00068030020D41B000800000020680000001B
:101BC0006C0100083C1C000868000020600900004F
:101BD000880100080061646D696E0000000000006B
:101BE0000000000000000000000061646D696E00EC
:101BF00000000000000000000000000000000000E5
:101C000000A24A04000000000000000001020304DA
:101C100006070809010000000000000000000000A5
:101C200000000000000000000000010203040102A7
:0C1C30000304060708090204060800006F
:0400000508000131BD
:00000001FF
